:100000007EEF00F0FFFFFFFF30C015F031C016F0AB
:1000100015C0E1FF16C0E2FF120EE126E796E79455
:10002000E790E79EE79CE79AE798120EE15EE79675
:10003000E794E790E79EE79CE79AE7989BEC01F04E
:10004000E78AE788E786AFEC01F0E7969BEC01F0E2
:10005000E78AE788E786AFEC01F0E796AAEC01F0C3
:10006000AAEC01F0E78AE788E786AFEC01F0E796B3
:100070009BEC01F0E78AE798E786AFEC01F0E796A2
:10008000AAEC01F0E78AE798E786AFEC01F0E79683
:10009000E78EE79CE786AFEC01F0E796AAEC01F06B
:1000A000000EE76EE786AFEC01F0E796E78EE78C8F
:1000B000E78AE788E786AFEC01F0E796AAEC01F063
:1000C000000EE76EE786AFEC01F0E796E788E7867B
:1000D000AFEC01F0E7969BEC01F0000EE76EE786CF
:1000E000AFEC01F0E796E78CE78AE786AFEC01F02A
:1000F000E796AAEC01F0010E176E12007FEC01F0FA
:10010000490E266E200E276E410E286E4D0E296E6A
:10011000200E2A6E460E2B6E490E2C6E4E0E2D6E44
:10012000450E2E6E2F6A936A836A830E306E0F0E11
:10013000316E04EC00F0010E366EF1EC00F0010EB1
:10014000306E040E316E24C032F025C033F03BEC2B
:1001500001F00B0E0C6EFF0E0B6EFF0E0A6E0C2ED6
:1001600001D007D00B2E01D003D00A2EFED7FAD72C
:10017000F6D7330E0B6EFF0E0A6E0B2E01D003D096
:100180000A2EFED7FAD7880E0A6E0A2EFED7020E66
:10019000306E010E316E260E326E000E336E3BEC69
:1001A00001F00B0E0C6EFF0E0B6EFF0E0A6E0C2E86
:1001B00001D007D00B2E01D003D00A2EFED7FAD7DC
:1001C000F6D7330E0B6EFF0E0A6E0B2E01D003D046
:1001D0000A2EFED7FAD7880E0A6E0A2EFED7A4D7AB
:1001E000FFD715C000F016C001F000C015F001C027
:1001F00016F015C0E9FF16C0EAFF365200E0EF9690
:10020000EF94EF9EEF9CEF9AEF9836BEEF8E36BCE0
:10021000EF8C36BAEF8A36B8EF881750010A03E13F
:10022000EF9414EF01F0EF84EF86AFEC01F036525B
:1002300000E0EF96EF94EF9EEF9CEF9AEF9836B6C2
:10024000EF8E36B4EF8C36B2EF8A36B0EF881750A7
:10025000010A03E1EF942EEF01F0EF84EF86AFEC9B
:1002600001F0EF961750010A03E19BEC01F002D078
:10027000AAEC01F012000FD0800E306E19D0C00E23
:10028000306E16D0940E306E13D0D40E306E10D067
:10029000800E306E0DD03050010AEEE03050020A70
:1002A000EEE03050030AEEE03050040AEEE0F0D702
:1002B0003104006E3050002600C030F000C036F02F
:1002C000F1EC00F0176A346A356A34503224E96E72
:1002D00035503320EA6EEECF00F000520DE034507E
:1002E0003224E96E35503320EA6EEECF36F0F1EC71
:1002F00000F0344A352AE9D7010E176E1200480E75
:10030000186E450E196E4C0E1A6E4C0E1B6E4F0E6B
:100310001C6E200E1D6E570E1E6E4F0E1F6E520E5F
:10032000206E4C0E216E440E226E236A180E246E2F
:10033000000E256E12000F0E0B6EFF0E0A6E0B2EB6
:1003400001D003D00A2EFED7FAD73E0E0A6E0A2E2F
:10035000FED71200210E0A6E0A2EFED712000000F0
:1003600000001200FFFFFFFFFFFFFFFFFFFFFFFF87
:020000040030CA
:0E000000FFFFFFFFFFFFFFFFFFFFFFFFFFFF00
:00000001FF
